:020000040800F2
:10000000900E0020D5010008D9010008DB0100088E
:10001000DD010008DF010008E10100080000000028
:10002000000000000000000000000000E3010008E4
:10003000E501000800000000E7010008E9010008F0
:10004000EB010008EB010008EB010008EB010008E0
:10005000EB010008EB010008010E0008EB010008AD
:10006000090E0008110E0008190E0008EB01000827
:10007000EB010008EB010008EB010008EB010008B0
:10008000EB010008EB010008EB010008EB010008A0
:10009000EB010008EB010008EB010008EB01000890
:1000A000EB010008EB010008EB010008EB01000880
:1000B000EB010008CB020008EB010008EB0100088F
:1000C000EB010008EB010008EB010008EB01000860
:1000D000EB010008EB010008EB010008EB01000850
:1000E000EB010008EB010008EB01000800F002F84A
:1000F00000F05AF80AA090E8000C82448344AAF168
:100100000107DA4501D100F04FF8AFF2090EBAE865
:100110000F0013F0010F18BFFB1A43F0010318473B
:10012000004E0000204E00000A444FF0000C10F872
:10013000013B13F0070408BF10F8014B1D1108BF65
:1001400010F8015B641E05D010F8016B641E01F805
:10015000016BF9D113F0080F1EBF10F8014BAD1C55
:100160000C1B09D16D1E58BF01F801CBFAD505E073
:1001700014F8016B01F8016B6D1EF9D59142D6D3CD
:10018000704700000023002400250026103A28BFF5
:1001900078C1FBD8520728BF30C148BF0B607047F9
:1001A0001FB51FBD10B510BD03F068F81146FFF76D
:1001B000F7FF00F02BF803F086F803B4FFF7F2FF27
:1001C00003BC00F0C5FA000030BF72B662B680F31F
:1001D0000888704708480047FEE7FEE7FEE7FEE7AD
:1001E000FEE7FEE7FEE7FEE7FEE7FEE70348044919
:1001F000044A054B70470000ED0000089005002000
:10020000900E00209006002090060020092000F0AB
:1002100044FA482000F0D6F84FF47A7000F00AF95A
:100220005A48806940F00100584988614FF00070D9
:100230005749486000F01CFB00F04CFB00F0FEFB4F
:1002400000BF00F010FD0028FBD100F0CEFC5148AB
:10025000006820F480404F49086014204E4908701F
:1002600000F0ACFF322000F0E5F800F0A7FF3220EC
:1002700000F0E0F84FF4FA7000F0D1FF0A20464990
:1002800008704648008830B94448408818B900F0E2
:100290007EFB00BFFEE702F0EBFA022140F2E730FE
:1002A00000F0F2FD41F61F41142000F0C9FD4FF4AB
:1002B000487000F0BFF800F07BFB05E0384800789C
:1002C000012801D100F085FBF8E77CB535480088AE
:1002D00000F00100002851D000F0C7FE00F076FECB
:1002E0000A2001F083FA00202F49C8772F49B1F97D
:1002F000040004F01FFB04462C49B1F9020004F08D
:1003000019FB05462949B1F9000004F013FB064624
:10031000274BCDE900549A6859681868334601F0B4
:1003200032FB2449204800F03FFC1F48C07F80B9C1
:1003300021480068401C20490860204800780128B6
:100340001AD108460068322816D9002014490870CE
:1003500012E01548C07FAA280ED1134802F0F8FA1F
:100360001748006840F40040154908600020124911
:10037000086001200A49087002F0D1FC0948008891
:1003800020F00100074908807CBD000000100240F9
:10039000000001400C0C0140000000209E000020E5
:1003A000010000201004004084010020AA00002069
:1003B0000C030020A401002004000020C90000203C
:1003C0000C0801404FF0E021096921F004014FF0D1
:1003D000E0221161C21700EB5272C2F3C702234B35
:1003E0001A701946097801EB4102C2EBC1114FF6B0
:1003F000FF7202EAC1011E4A1180704701461B4A82
:1004000012784A434FF0E0235A6100229A61012298
:100410001A6100BF4FF0E022106900F001021AB12A
:1004200000F48032002AF5D000224FF0E0231A6158
:100430009A61704701460E4A12884A434FF0E02302
:100440005A6100229A6101221A6100BF4FF0E02236
:10045000106900F001021AB100F48032002AF5D0D0
:1004600000224FF0E0231A619A61704720000020BB
:1004700022000020AA4A0A400243AA4B1A60704791
:100480000146072323EA01021202A64B1B1D18682E
:100490004FF6FF031840A44B18431043A14B1B1DFC
:1004A000186070472DE9F0478046894614461D467E
:1004B0002046E11704EB9171C1F3870AE11704EBC1
:1004C00091718910A4EB8101CFB2042000EBC70029
:1004D000C7B22846FFF7D4FFC5F1040008FA00F6BA
:1004E0000F20284100EA0900064306F00F06202CE1
:1004F00009DA8E4801680120A04001434FF0E02056
:10050000C0F800110BE08948001D0068A4F120012B
:1005100001228A4010434FF0E021C1F804018448D1
:1005200050F82A0006FA07F10843814941F82A00E9
:10053000BDE8F08770B504460B46CE1701EB967602
:10054000C6F38700CE1701EB9676B610A1EB8606B0
:10055000B606350E774B9B6943F00103754EB361C8
:100560004FEAB63353F820300F26AE40B343724EF5
:1005700046F82030334653F8203004FA05F61E437F
:100580006D4B43F820606D4B1B6801268E40334352
:100590006A4E336002F0010343B1684B0C331B68B1
:1005A00001268E403343654E0C36336002F0020361
:1005B00043B1624B08331E6801238B401E435F4BDF
:1005C00008331E6070BD00B500205A490861C8603C
:1005D0001420486100208861C8610846006840F026
:1005E0000100086008464068554908405149486084
:1005F00008460068534908404E49086008460068AC
:1006000020F4802008600846406820F4FE0048601E
:100610000020886000214FF00060FFF72BFF00BD35
:1006200010B540480830006840F004003D490831EA
:1006300008604048C06940F080503E49C861424867
:10064000406840F48070404948600846006840F0C7
:10065000040008600846006840F002000860FFF7E8
:10066000B3FD10BD3048001D2E49091D08607047BC
:10067000014649062F4A926942F001022D4B9A61C8
:100680002D4A083A526822F0E0622B4B083B5A6030
:100690001A4652680A435A60704730B5044600252E
:1006A000FFF791FF2348006840F48030214908603B
:1006B00000BF20480068400C0028FAD04FF480604A
:1006C0001C494860A01EC4B20846406840EA844005
:1006D00048600846406840F4803048601B48006825
:1006E00040F03200194908601248006840F08070FC
:1006F0001049086000BF0F480068400E0028FAD07B
:100700000C48406840F002000A49486005E009488A
:100710004068C0F3870505F00305022DF7D130BD11
:1007200080FFFF1F08ED00E00000FA0500E100E097
:1007300000E400E000100240080001400004014015
:100740000000FFF8FFFFF6FE0070004000200240AE
:10075000014600BF704700BF414A128802F04002C4
:10076000002AF9D0C2B23E4B1B1D1A8070472DE9FA
:10077000F05F05460E46300104F0F4F88146394931
:1007800005FB01F004F0EEF88246494603F0D4FF81
:100790000746384604F0AEF884B2204604F0E2F88A
:1007A0008346394604F023FA82464FF0834104F031
:1007B00021F9814604F09EF880464FF6FF7000EA6A
:1007C000041404EB080084B22748806940F0040058
:1007D000254988610846806940F480408861234843
:1007E000006820F47F60214908600846006840F4F2
:1007F0000B6008601C48C06840F480401A49C8601B
:100800000846C06820F48040C8601548083004805D
:10081000001D008842F20C01084311490C31088088
:10082000BDE8F09F0E49091D088000BF0C490988EA
:1008300001F040010029F9D07047014608460BE05D
:1008400010F8012B064B1B1D1A8000BF044A1288AA
:1008500002F04002002AF9D00278002AF0D1704755
:100860000038014040420F000010024004080140DF
:100870006F48806940F004006D49886108468069CE
:1008800040F0080088616B48006820F0706069499A
:1008900008600846006840F04070086066480068DC
:1008A00020F07040644908600846006840F04050FD
:1008B000086060480830006840F480405D490831B5
:1008C00008605D480830006840F400405A4908312B
:1008D0000860704710B5002400BF29E05548083073
:1008E000006820F480405349083108606420FFF715
:1008F000A1FD51480830006820F400404E490831FD
:1009000008606420FFF796FD4A480830006840F40C
:10091000804048490831086047480830006840F482
:1009200000404549083108606420FFF783FD641CDE
:10093000032CD3DB3F480830006820F480403D4959
:10094000083108606420FFF775FD3A4808300068F8
:1009500040F480403749083108602820FFF76AFDDD
:1009600034480830006820F480403249083108607B
:100970006420FFF75FFD2F480830006840F4804096
:100980002C49083108602820FFF754FD10BD294884
:100990000830006820F48040264908310860264865
:1009A0000830006820F4004023490831086070478F
:1009B00020480830006840F480401E490831086033
:1009C0001D480830006840F400401B4908310860A9
:1009D000704710B517480830006820F4804015496A
:1009E000083108606420FFF725FD124808300068D0
:1009F00040F480400F49083108602820FFF71AFDB5
:100A00000C480830006820F480400A49083108602A
:100A10006420FFF70FFD07480830006840F480406D
:100A20000449083108604FF41670FFF703FD10BD4C
:100A300000100240040C01400408014010B59A481F
:100A4000806940F00800984988610846806940F054
:100A5000040088619548006820F00F009349086001
:100A60000846006840F00800086090480C300068B4
:100A700040F001008D490C3108608C48001D006871
:100A800020F470408949091D08600846006840F458
:100A9000405008608648006820F47020844908604F
:100AA0000846006840F44030086000F03CF9814896
:100AB000008820F040007F4908800846008820F028
:100AC000020008800846008820F0010008800846DF
:100AD000008840F040000880012000F075F90020F7
:100AE0007549086001207549C1F8900110BD70B5C5
:100AF00005460C46002072490860284600F0ECF8D4
:100B00000646204600F0E8F801206C49C1F8900143
:100B1000304670BD70B50446002069490860204623
:100B200000F0DAF8FF2000F0D7F80546012063490D
:100B3000C1F89001284670BD2DE9F04107460D46E9
:100B4000164600205E490860384600F0C5F8804629
:100B5000002405E0FF2000F0BFF82855601CC4B257
:100B6000B442F7DB0120564908604046BDE8F081F9
:100B70002DE9F04107460C46154600205049086013
:100B8000384600F0A9F88046002605E014F8010B6D
:100B900000F0A2F8701CC6B2AE42F7DB0120484953
:100BA00008604046BDE8F08170B504460E46072057
:100BB000FFF7B0FF054629462720FFF798FF05F00D
:100BC000400080B16020FFF7A5FF3E49087008464D
:100BD000027821466120FFF7AFFFFF21E220FFF7F7
:100BE00086FF802070BD0120FCE710B5002032494F
:100BF0000860052234492A20FFF7BAFF052233494D
:100C00003020FFF7B5FF01212120FFF770FF1A21E7
:100C10002420FFF76CFF28212520FFF768FF06211D
:100C20003D20FFF764FF1D20FFF774FF38B91C203B
:100C3000FFF770FF18B973215020FFF758FF062106
:100C40003D20FFF754FF3F213C20FFF750FF0F21CD
:100C50002620FFF74CFF0F212020FFF748FF01203F
:100C60001549086010BD1CB519A103C9CDE90001E3
:100C7000052269463020FFF77BFF052269461020D8
:100C8000FFF75AFF002406E01DF80400A52800D055
:100C900003E0601CC4B2052CF6DB00BF052C01D0BC
:100CA00001201CBD0020FCE700100240000C0140A8
:100CB0000008014000300140AC8121420000214287
:100CC000900121424E0000204900002044000020F5
:100CD000A5A5A5A5A50000000246002107E0481C27
:100CE00081B24FF6FE70814201DB00207047404820
:100CF000008900F002000028F1D03D4882810021E7
:100D000007E0481C81B24FF6FE70814201DB0020F3
:100D1000ECE73748008900F001000028F1D03448A2
:100D20008089C0B2E2E700B53248806940F0040033
:100D3000304988610846806940F4805088612E48B7
:100D40000068C0F313002C490860084600682B496E
:100D500008432949086028480C30006840F0E0004A
:100D600025490C310860224800882149088008463E
:100D7000008840F4007008800846008840F48070C5
:100D800008800846008840F0040008800846008873
:100D900008800846008840F0020008800846008865
:100DA00040F0010008800846008840F018000880E4
:100DB0000846008808800846008840F04000088007
:100DC000FF20FFF789FF00BD00F0070008490988F0
:100DD0004FF6C7721140064A11801146098841EA50
:100DE000C00111801146098841F04001118070470F
:100DF0000030014000100240000801400000B0BB7C
:100E000001200E490860704704200C4908607047B3
:100E100008200A4908607047102008490860704798
:100E200010B5012204210620FFF784FB02230A22C9
:100E300019461846FFF736FB10BD000014040140A8
:100E400070B505460C465B48C06940F00200594940
:100E5000C86159480580001F048057482038008821
:100E600040F0010054492039088053482C3800884C
:100E700040F0010050492C39088002231D22032133
:100E80000120FFF70FFB70BD4A4AD26942F0010210
:100E9000484BDA611A46926942F004029A61474A65
:100EA00012686FF30F02454B1A601A4612684BF630
:100EB000BB331A43414B1A603E4A926942F0010229
:100EC0003C4B9A613E4A526822F440723C4B5A6055
:100ED0009A0390851185128B42F060029B031A835E
:100EE0001A46128B42F008021A831A46128B42F4F9
:100EF000C0421A831A46128B42F400621A831A46C1
:100F0000928B42F060029A831A46928B42F008025A
:100F10009A831A46928B42F4C0429A831A46928B65
:100F200042F400629A831A46128C42F001021A843B
:100F30001A46128C42F010021A841A46128C42F49D
:100F400080721A841A46128C42F480521A84DA1380
:100F50001A80D203128842F001021A8000229A8677
:100F60001A879A87174B1A80704770B505460C464A
:100F70001048C06940F008000E49C8611248058059
:100F8000001F048010482038008840F001000E49FE
:100F9000203908800C482C38008840F001000A49AC
:100FA0002C3908800223322203210120FFF77AFA2C
:100FB00070BD0000001002402C04004000080140F9
:100FC00000000140400000402C0C0040DD4840780B
:100FD000DC49097840EA012000B2DB490880D948A1
:100FE000C078D849897840EA012000B2D6494880C3
:100FF000D4484079D349097940EA012000B2D24966
:101000008880D048407ACF49097A40EA012000B26E
:10101000CE490880CB48C07ACA49897A40EA012083
:1010200000B2CA494880C748407BC649097B40EAAC
:10103000012000B2C549888008460088C449098853
:10104000401A00B2C3490880C0484088C049498856
:10105000401A00B2BF494880BC488088BC49898892
:10106000401A00B2BB498880704710B5B54B0E22BC
:101070003B21682000F019FB10BDF8B506460F466D
:1010800014461D466B4601223946304600F00DFBE2
:101090002DB10120A0409DF80010084305E001207B
:1010A000A0409DF8001021EA0000C0B200909DF819
:1010B00000203946304600F0D4FAF8BD2DE9F84357
:1010C0000746884614461D46089E6B460122414647
:1010D000384600F0EAFA601CFF2101FA00F0C4F182
:1010E00008012944491EFF220A41104300F0FF096C
:1010F000C5F1080006FA00F0C6B2C4F107000641C7
:101100009DF8000000EA090000909DF800003043BF
:1011100000909DF800204146384600F0A2FABDE854
:10112000F88338B50446032302226B21682000941B
:10113000FFF7C4FF38BD38B50446022304221B2143
:1011400068200094FFF7BAFF38BD38B50446022383
:1011500004221C2168200094FFF7B0FF38BD10B5B1
:101160000446234606226B216820FFF786FF10BD48
:1011700010B50446234605226A216820FFF77DFF4B
:1011800010BD10B504462346012237216820FFF721
:1011900074FF10BD38B50446032302221A216820CB
:1011A0000094FFF78BFF38BD38B5044608230022B2
:1011B000192168200094FFF781FF38BD10B500F0B9
:1011C0000AFA0120FFF7ADFF0220FFF733F90320F1
:1011D000FFF7B1FF0220FFF72DF90120FFF7B5FF60
:1011E0000220FFF727F90220FFF724F90320FFF779
:1011F000D1FF0220FFF71EF90020FFF7B0FF022009
:10120000FFF718F90020FFF7B3FF0220FFF712F9EC
:101210000120FFF7B6FF0220FFF70CF910BD2DE902
:10122000FF5F0446002500260027A846A946AA46D7
:10123000AB4600BF2EE0142095FBF0F100FB1150EF
:1012400028B94548006880F4004043490860FFF72A
:101250000CFFFFF7BBFE3C48B0F9000006443A48DB
:10126000B0F9020007443848B0F90400A0F5005076
:1012700080443848B0F9000081443648B0F9020093
:1012800082443448B0F9040083440320FFF7D2F8C5
:10129000681C85B2A542CEDB96FBF4F000B22F4964
:1012A000088097FBF4F000B2488098FBF4F000B29D
:1012B000888099FBF4F000B2254908809AFBF4F08D
:1012C00000B248809BFBF4F000B28880B1F90000C6
:1012D00002F021FE224A234BCDE9000102F082FEFA
:1012E000CDE9020102F0A2FB1F4908601849B1F9DB
:1012F000020002F010FE1A4A1A4BCDE9000102F07A
:1013000071FECDE9020102F091FB174948601049D6
:10131000B1F9040002F0FFFD114A124BCDE90001C2
:1013200002F060FECDE9020102F080FB0E49886008
:10133000074800880D490880054840884880BDE876
:10134000FF9F0000D00100208000002092000020BC
:10135000A40000208C0000200C0801409E0000200A
:10136000650113B87537AF3FE0010020860000200B
:101370000020F649087801E0411EC8B20028FBD1E0
:10138000704700B5F248006840F00800F049086076
:101390000846006840F010000860FFF7E9FFEC48DD
:1013A000001F006800F0080008B9002000BDE848F0
:1013B000006820F00800E6490860FFF7D9FFE4481C
:1013C000001F006800F0080008B10020EEE7E048C8
:1013D000006820F00800DE490860FFF7C9FF01201F
:1013E000E4E700B5DA48006820F01000D84908604A
:1013F000FFF7BEFFD648006820F00800D449086017
:10140000FFF7B6FFD248006840F01000D0490860EE
:10141000FFF7AEFFCE48006840F00800CC490860F6
:10142000FFF7A6FF00BD00B5C948006820F0100016
:10143000C7490860FFF79CFFC548006820F0080016
:10144000C3490860FFF794FFC148006840F01000EE
:10145000BF490860FFF78CFFBD48006820F010000E
:10146000BB490860FFF784FF00BD00B5B8480068BD
:1014700020F01000B6490860FFF77AFFB448006812
:1014800040F00800B2490860FFF772FFB0480068FA
:1014900040F01000AE490860FFF76AFFAC480068F2
:1014A00020F01000AA490860FFF762FF00BD00B5F8
:1014B000A748006820F01000A5490860FFF758FF12
:1014C000A348006840F00800A1490860FFF750FFFA
:1014D0009F48006840F010009D490860FFF748FFF2
:1014E0009B48001F006800F0080038B19848006869
:1014F00020F0100096490860002000BD9448006864
:1015000020F01000924908600120F6E700B502467D
:10151000082323E08E48006820F010008C49086002
:10152000FFF726FF02F0800030B18948006840F0E4
:1015300008008749086005E08548006820F0080039
:10154000834908605006020EFFF712FF80480068CA
:1015500040F010007E490860FFF70AFF181EA3F153
:101560000101CBB2D6D17A48006820F0100078494A
:10157000086000BD00B5082300227548006840F0EF
:1015800008007349086019E05006020E70480068B0
:1015900020F010006E490860FFF7EAFE6C48006812
:1015A00040F010006A490860FFF7E2FE6848001F3B
:1015B000006800F0080008B142F00102181EA3F113
:1015C0000101CBB2E0D16248006820F01000604910
:1015D0000860104600BD5F48806940F008005D4922
:1015E00088615B480C38006820F47F2058490C392A
:1015F00008600846006840F4CC20086070472DE978
:10160000F04105460E4617469846FFF7BAFE10B958
:101610000020BDE8F081002141EA4501C8B2FFF792
:1016200075FFFFF744FF18B9FFF7DBFE0020F0E776
:101630003046FFF76BFFFFF73AFF00240BE018F886
:101640000400FFF763FFFFF732FF18B9FFF7C9FE89
:101650000020DEE7641CBC42F1DBFFF7C2FE012084
:10166000D7E770B504460D461646FFF78AFE08B95F
:10167000002070BD002141EA4401C8B2FFF746FFD7
:10168000FFF715FF18B9FFF7ACFE0020F1E7284679
:10169000FFF73CFFFFF70BFF3046FFF737FFFFF781
:1016A00006FFFFF79EFE0120E3E72DE9F041054626
:1016B0000F4614461E46FFF764FE10B90020BDE831
:1016C000F081002141EA4501C8B2FFF71FFFFFF793
:1016D000EEFE18B9FFF785FE0020F0E73846FFF769
:1016E00015FFFFF7E4FEFFF74CFE012101EB45017A
:1016F000C8B2FFF70BFFFFF7DAFE0CE0FFF73AFF87
:101700003070012C02D1FFF7B0FE01E0FFF78BFE35
:10171000761C601EC4B2002CF0D1FFF762FE0120DF
:10172000CDE710B5FFF72DFE3C20FFF7EFFEFFF7EA
:10173000BEFE0220FFF7EAFEFFF7B9FE0020FFF72A
:10174000E5FEFFF7B4FEFFF74CFE10BD00000020E1
:101750000C0C0140001002402DE9FC4105460E46EC
:1017600017460020009001900024FFF70AFE3C205D
:10177000FFF7CCFEFFF79BFE0320FFF7C7FEFFF746
:1017800096FEFFF7FEFD3D20FFF7C0FEFFF78FFE40
:1017900000BF0CE0FFF7EEFE0DF80400052C02D1AF
:1017A000FFF763FE01E0FFF73EFE601CC4B2062CAB
:1017B000F0DBFFF716FE9DF801009DF8001040EAEF
:1017C000012000B228809DF803009DF8021040EA35
:1017D000012000B238809DF805009DF8041040EA11
:1017E000012000B23080BDE8FC8100002DE9FC5FE3
:1017F00005460026B146B246FE49B1F9000002F0A6
:101800008AFBFD4AFD4BCDE9000102F0EBFB0746E8
:1018100002F00CF9FA490860F649B1F9020002F049
:101820007AFBF54AF54BCDE9000102F0DBFB0746F8
:1018300002F0FCF8F2494860EE49B1F9040002F008
:101840006AFB0746EC4AED4B02F0CCFBCDE9000108
:1018500002F0ECF8EA498860EA49B1F9000002F0C8
:101860005AFB0746E44AE54B02F0BCFBCDE9000118
:1018700002F0DCF8E4490860E249B1F9020002F044
:101880004AFB0746DC4ADD4B02F0ACFBCDE9000128
:1018900002F0CCF8DC494860DA49B1F9040002F002
:1018A0003AFB0746D44AD54B02F09CFBCDE9000138
:1018B00002F0BCF8D4498860D4480088D449D54A9D
:1018C000127821F81200D1484088D349D14A1278C1
:1018D00021F81200CD488088D049CE4A127821F8EC
:1018E000120000240DE0CA4830F914000644CA482A
:1018F00030F914008144C94830F914008244601C56
:10190000C4B2AC42EFDB284603F02CF880463046E8
:1019100003F010F88346414602F00EFF074602F03E
:10192000CDFF00B2BE490880284603F01BF8804670
:10193000484602F0FFFF8346414602F0FDFE07469F
:1019400002F0BCFF00B2B6494880284603F00AF80E
:101950008046504602F0EEFF8346414602F0ECFE20
:10196000074602F0ABFF00B2AD498880A948007875
:10197000401CA849087008460078A84201D1002000
:101980000870BDE8FC9F0FB599B0199802F03AFEB7
:10199000A44AA54BCDE90A0102F024FBCDE90C01D4
:1019A00002F044F819901A9802F02CFE9D4A9E4BC2
:1019B000CDE90A0102F016FBCDE90C0102F036F880
:1019C0001A901B9802F01EFE964A974BCDE90A0129
:1019D00002F008FBCDE90C0102F028F81B901F99DA
:1019E000084603F007F80C901E99084603F002F829
:1019F0000A901C99084602F0FDFF09900A9902F02E
:101A00002DFE0B900C9902F029FE0D9000F00AFFBC
:101A1000179017991C9802F0EDFF1C9017991E98CB
:101A200002F0E8FF1E9017991F9802F0E3FF1F9045
:101A30007E4801687E48006802F0DCFF0D907D481A
:101A400001687D48006802F0D5FF0C900D9903F005
:101A5000D9F81690774801687448006802F0CAFF08
:101A60000D90754801687248006802F0C3FF0C9041
:101A70000D9902F0F3FD15906E480168006802F0C0
:101A8000B9FF0D906A480168006802F0B3FF4FF09B
:101A90007C510B9003F0B6F80C900D9902F0DEFD2E
:101AA000149015991F9802F0A5FF0D9014991E9897
:101AB00002F0A0FF0C900D9903F0A4F81390149974
:101AC0001C9802F097FF0D9016991F9802F092FF54
:101AD0000C900D9903F096F8129016991E9802F04A
:101AE00089FF0D9015991C9802F084FF0C900D99B8
:101AF00003F088F8119051481399006802F07AFFBA
:101B00000C904F4801680C9802F074FF0D904D48FE
:101B100001680D9802F0A2FD4A49086047481299F1
:101B2000006802F067FF0C90454801680C9802F0CD
:101B300061FF0D90444801680D9802F08FFD424905
:101B400008603E481199006802F054FF0C903C4830
:101B500001680C9802F04EFF0D903C4801680D980A
:101B600002F07CFD3949086036480168199802F096
:101B700075FD1990344801681A9802F06FFD1A90AB
:101B8000324801681B9802F069FD1B903048139998
:101B9000006802F02FFF0D90199902F05FFD199077
:101BA0002B481299006802F025FF0D901A9902F057
:101BB00055FD1A9026481199006802F01BFF0D9000
:101BC0001B9902F04BFD1B902249199802F012FF5D
:101BD000199020491A9802F00DFF1A901D491B9880
:101BE00002F008FF1B90124800681090124800682D
:101BF0000F9031E08C000020650113B87537AF3FBE
:101C00000C03002092000020180300208000002018
:101C1000EC0100207C0000200002002014020020C3
:101C2000AA000020A835CD3B4ED1913F7400002082
:101C30006C00002078000020700000205800002078
:101C40005C0000206000002064000020680000208C
:101C5000540000200AD7A33AFE4800680E90FE48C0
:101C60001B99006802F0C6FE0C901A990E9802F0BB
:101C7000C1FE0A900F9880F000400890199902F078
:101C8000B9FE09900A9902F0BDFF0B900C9902F081
:101C9000B9FF0D90F14801680D9802F0DFFCEF49A3
:101CA0000860ED481A99006802F0A4FE0C901B9998
:101CB0000E9802F09FFE0A901099199802F09AFE71
:101CC00009900A9902F0CAFC0B900C9902F09AFF55
:101CD0000D90E34801680D9802F0C0FCE0490860EF
:101CE000DD480168199802F085FE0C901B990F9849
:101CF00002F080FE0A901A99109802F07BFE09907B
:101D00000A9902F07FFF0B900C9902F0A7FC0D904E
:101D1000D04801680D9802F0A1FCCE4908600E99E8
:101D2000199802F067FE0C901A990F9802F062FE63
:101D30000A901B99109802F05DFE09900A9902F032
:101D40008DFC0B900C9902F05DFF0D90C24801686C
:101D50000D9802F083FCC0490860084601680068DD
:101D600002F048FE0C90BB480168006802F042FE99
:101D70000A90BB480168006802F03CFE0890B74832
:101D80000168006802F036FE0790089902F066FCD0
:101D900009900A9902F062FC0B900C9902F05EFC2B
:101DA0000D9000F03FFD1790AC481799006802F0C5
:101DB00021FEAA490860AA481799006802F01AFE95
:101DC000A7490860A3481799006802F013FEA149CB
:101DD0000860A1481799006802F00CFE9E4908604F
:101DE0009E4801684FF0804002F004FE049099483C
:101DF0000168049802F0FEFD0690994801684FF0D2
:101E0000404002F0F7FD049093480168049802F006
:101E1000F1FD0590069902F021FC079002F0F2FB1B
:101E2000CDE9080101F0D4FA4FF066328D4BCDE9CF
:101E30000A0102F0D7F8CDE90C0101F0F7FD8A495B
:101E40000860844801684FF0804002F0D3FD0190A3
:101E500080480168019802F0CDFD03908048016838
:101E60004FF0404002F0C6FD01907D4801680198A6
:101E700002F0C0FD0290039902F0C4FE4FF07E51C3
:101E8000049002F0EBFB059002F0BCFBCDE90801E9
:101E9000724801684FF0804002F0ACFD029070483B
:101EA0000168029802F0A6FD04906A4801684FF0AC
:101EB000804002F09FFD029067480168029802F09E
:101EC00099FD0390049902F0C9FB059002F09AFB7A
:101ED000CDE90601DDE9082301F0C2FC4FF06632CE
:101EE000604BCDE90A0102F07DF8CDE90C0101F06B
:101EF0009DFD5E4908605A4801684FF0804002F03D
:101F000079FD019056480168019802F073FD039035
:101F1000524801684FF0804002F06CFD01904F483C
:101F20000168019802F066FD0290039902F096FBA9
:101F30004FF07E51049002F065FE059002F062FBC6
:101F4000CDE90801454801684FF0804002F052FD9C
:101F5000029041480168029802F04CFD049040480C
:101F600001684FF0804002F045FD02903948016859
:101F7000029802F03FFD0390049902F043FE0590A1
:101F800002F040FBCDE90601DDE9082301F068FC21
:101F9000374A344BA43BCDE90A0102F023F8CDE9DE
:101FA0000C0101F043FD334908600021314800680D
:101FB00002F0ECFC06D230492E48006802F04EFBDD
:101FC0002C4908601DB000BD2DE9F04F93B00024EE
:101FD0004C222A49684601F008F900250026A1464E
:101FE0002749B1F9000002F0A5FC26490860244900
:101FF000B1F9020002F09EFC234908602049B1F9C2
:10200000040002F097FC2149086000BF45E01D4A2A
:1020100052F824105DF8240002F0ECFC0746294633
:1020200002F01CFB0546184A52F824105DF8240003
:1020300002F0E0FC0746314602F010FB0646134A68
:1020400052F824105DF8240002F0D4FC07464946FB
:102050001EE0000074000020780000206C000020CA
:102060007000002066A64C40B0000020B4000020A4
:10207000F6285C8FB80000200000B443E04D000853
:10208000800000202802002074020020C0020020EE
:1020900002F0E4FA8146601CC4B2132CB7DB284678
:1020A00002F00CFC00B2A2490880304602F006FCA7
:1020B00000B29F494880484602F000FC00B29C49AB
:1020C000888000241FE0C4F111009A4951F82000D3
:1020D000C4F11201974A42F82100C4F11100964957
:1020E00051F82000C4F11201934A42F82100C4F1D2
:1020F0001100924951F82000C4F112018F4A42F8B0
:102100002100601CC4B2122CDDDB8D49B1F9000046
:1021100001F001FF82468B4A8B4B01F063FF0746BB
:1021200001F084FC894908608549B1F9020001F099
:10213000F2FE8246834A844B01F054FF074601F0C9
:1021400075FC824948607E49B1F9040001F0E3FE64
:1021500007467C4A7C4B01F045FF824601F066FC55
:102160007A4988607A49B1F9000001F0D4FE8246CC
:10217000744A754B01F036FF074601F057FC75496C
:1021800008607349B1F9020001F0C5FE07466D4AC7
:102190006D4B01F027FF824601F048FC6D49486015
:1021A0006B49B1F9040001F0B6FE0746654A664B7B
:1021B00001F018FF824601F039FC6649886013B0CF
:1021C000BDE8F08F2DE9F04F89B0064689461546E7
:1021D0009A4600200890BAF1000F06D0BAF1010F1C
:1021E00032D0BAF1020F2ED15EE0284602F00AFA90
:1021F000CDE906014946484602F0FCFB3146019014
:10220000304602F0F7FB0090019902F027FA83466E
:1022100002F0F8F9CDE9020101F0E2FBCDE9040199
:10222000DDE9062301F0F0FC074601F0FFFB044660
:10223000204602F0E7F9CDE9060101F001FA074670
:1022400001F0F4FB08905FE02946284602F0D2FB3B
:1022500049460190484602F0CDFB0090019902F0FA
:10226000FDF9834602F0CEF9CDE9020101F0B8FB99
:1022700007468846304602F0C5F93A464346CDE95E
:10228000040101F0C1FCCDE9060101F0CFFB0446D9
:10229000204602F0B7F9CDE9060101F0D1F9074671
:1022A00001F0C4FB08902FE02946284602F0A2FB6B
:1022B00031460190304602F09DFB0090019902F0FA
:1022C000CDF9834602F09EF9CDE9020101F088FBC9
:1022D00007468846484602F095F93A464346CDE916
:1022E000040101F091FCCDE9060101F09FFB0446D9
:1022F000204602F087F9CDE9060101F0A1F9074671
:1023000001F094FB089000BF00BF1349089802F049
:1023100071FB834602F076F90746104A104B01F034
:1023200073FCCDE9060101F081FB09B0BDE8F08F37
:10233000AA0000202802002074020020C002002011
:102340008C000020650113B87537AF3F0C030020E7
:102350009200002018030020000034431F85EB5139
:10236000B81E094070B50446204602F04BF90546F8
:102370000022134601F034FF01D8204670BD84F0DE
:102380000040FBE710B504462146204602F032FB30
:1023900010BD2DE9F05F04464FF07F594FF07C519E
:1023A000204602F027FB824625462E46F948A0EB40
:1023B000660635462946504602F01CFB83462946F0
:1023C00002F018FB8046494602F011FC07462946F8
:1023D00002F010FB05462946504602F00BFB8346EF
:1023E000294602F007FB8046494602F000FC0746FA
:1023F000294602F0FFFA05462946204602F0FAFA7D
:10240000BDE8F09F2DE9FC5F06460F46002213460B
:102410003046394601F0AAFD12D2DF4ADF4B304682
:10242000394601F0DFFD8246DD4ADE4B01F030FB2C
:10243000804632463B4601F0D5FD04460D4611E08C
:10244000D54AD64B3046394601F0CCFD8046D44AB9
:10245000D44B01F0FBFE824632463B4601F0C2FD02
:1024600004460D46002213462046294601F07EFD13
:1024700018D20022CC4B2046294601F009FB8046A9
:10248000CA4ACB4B01F0AEFD82460022C64B01F09A
:10249000FFFA22462B46CDE9000101F0A3FD0446D8
:1024A0000D4617E00022C04B2046294601F0C0FF30
:1024B0008046BE4ABF4B01F095FD82460022BA4BD2
:1024C00001F0E6FA22462B46CDE9000101F08AFD33
:1024D00004460D4620462946BDE8FC9F2DE9F047FD
:1024E00004460D460126B44AB44B2046294601F065
:1024F00077FE09D8B04AB14B2046294601F098FF33
:1025000004460D467042C6B2304601F01BFD074638
:10251000884620462946FFF775FF81463A464346DE
:1025200001F060FDBDE8F0872DE9FC4704460D464B
:102530004FF0010AA04AA24B2046294601F0A8FA12
:1025400004460D469C4A9D4B2046294601F048FE14
:102550000BD8CAF1000000F0FF0A974A974B2046BB
:10256000294601F065FF04460D46504601F0EAFC9D
:1025700006460F4620462946FFF7B0FF8046324602
:102580003B4601F02FFDCDE9000101F04FFABDE817
:10259000FC872DE9F04F89B082465146504602F043
:1025A00029FA8346584602F02DF8864A864BCDE933
:1025B000000101F06DFA06460F46584602F022F877
:1025C000804632463B4601F00DFD04467F4A804B73
:1025D00001F05EFACDE90401584602F013F87D4A95
:1025E0007D4BCDE9000101F0FDFC06467B4A784BAE
:1025F00001F04EFA04460D46504602F003F88046BC
:1026000022462B4601F0EEFCCDE90201DDE9042370
:1026100001F0FAFACDE9060101F008FA09B0BDE8C7
:10262000F08F2DE9F14F86B0069801F0EBFF0446DC
:102630006B4A6C4B01F09AFC05D20698FFF7A9FF94
:1026400007B0BDE8F08F069801F0DCFF0446664A4B
:10265000664B01F0C5FD1BD2069801F0D3FF824600
:1026600052460B460020504901F0CEFA804601F058
:10267000DDF90490FFF78DFF059001F0C3FF0646DA
:102680005B4A4F4B01F0E2FD044601F0CFF9D7E77A
:10269000069801F0B7FF06460022434B01F0F8F917
:1026A000CDE90001069801F0ADFF064600223E4B41
:1026B00001F0BEFE0446DDE9002301F0A5FACDE9F4
:1026C000020101F0B3F90490FFF763FF059001F0F8
:1026D00099FF8046464A474B01F0DAF9824601F0FD
:1026E000A5F9ADE72DE9F84F81464FF0000A4846BD
:1026F00001F088FF054600223F4B01F037FC08D36C
:10270000484601F07FFF05460022274B01F068FD97
:1027100002D20020BDE8F88F484601F073FF05465D
:102720000022134601F022FC03D289F000494FF049
:10273000010A4946484602F05DF9009001F062FF47
:1027400007460022184B01F081FD054601F06EF9A5
:102750008346FFF71EFE0446484601F053FF054638
:10276000264A274B01F03CFD4CD24946204601F059
:10277000E3FF0090FFF755FF834601F043FF074654
:102780001B4A0F4B01F062FD054601F04FF904466C
:1027900040E00000DF59375F592799622FF0D93F99
:1027A000A662846C305FF43F0000F03FCDCCCCCC0F
:1027B000CCCCCCBFCCCCCC3FF1D4C853FB2109400E
:1027C000FB21F93F79680EFF9F2D25405F9A22C0BB
:1027D000E95129407D02EE9A0C7A194011A1B6B256
:1027E0007C9F70977982DA3FF013EE324F500340AE
:1027F000282D4454FB21E93F0000F0BF3E98656658
:102800009EA0E63F2146484601F096FF0546FFF7A9
:1028100008FF0446BAF1000F02D084F0004079E7C7
:10282000204677E72DE9F04704464FF07C512046DB
:1028300002F0E0F8814625462E460C48A0EB6606DD
:1028400035462946484602F0D5F88246294602F028
:10285000D1F880464FF07F5102F0C9F9074629466A
:1028600002F0C8F805462846BDE8F087DF59375F13
:10287000F648F74908604FF07E504860F548886098
:10288000002008614861F448C860F448F4490860D1
:1028900000204860F3488860002008614861F248E1
:1028A000C8604FF07E50F149086000204860ED4854
:1028B0008860002008614861EB48C86070472DE9D6
:1028C000F0410546002400260027E9480068E94950
:1028D000E94A127841F82200E5484068E749E64AAB
:1028E000127841F8220000BF0FE0E24850F82410AF
:1028F000304601F0B3FE0646E04850F82410384652
:1029000001F0ACFE0746601CC4B2AC42EDDB2846C9
:1029100002F028F880464146304601F00DFFD849C4
:102920000860284602F01EF880464146384601F00D
:1029300003FFD4490860D0480078401CCE49087095
:1029400008460078A84201D100200870BDE8F08157
:102950002DE9F04104462079C0EB0020617908445C
:10296000C9490860086801F0D6FA07460022C74B3B
:1029700001F038FB054601F09FFAC349086008469C
:10298000006840F25231884202DD0846BE490860C4
:10299000BD480068642803DD0120BD49087009E0D6
:1029A000BC480068BC4908600020B9490870A849C3
:1029B00008614861A078C0EB0020E178084440F24B
:1029C0007D71081AB04988602078C0EB00206178DA
:1029D0000844A0F66200AC494860A079C0EB002032
:1029E000E1790844A0F61500A749C8600846C06808
:1029F000C82806DA0846C06810F1C80F01DD0020BB
:102A0000C860A149C86801F095FF0546A348016860
:102A1000284601F0EFFFA2490860084601689E4879
:102A2000006801F01BFE9C4908609E499A480068B6
:102A300002F0ACF802D200209749086000219648C5
:102A4000006801F0A3FF02D29648934908609048BD
:102A5000007870B99448007858B98B48406810F5F0
:102A6000FA6F06DA01209049087000207849486121
:102A7000086185484068052808DA8348406810F1F5
:102A8000050F03DD00208049486002E001208749EE
:102A900008707D488068052808DA7B48806810F156
:102AA000050F03DD00207849886002E001207F499E
:102AB00008707548406828B97348806810B90020CC
:102AC0007A4908707049486801F034FF0546784833
:102AD0000168284601F08EFF764908606A498968D6
:102AE000484201F027FF054671480168284601F079
:102AF00081FF714908606F4800685D4908606E4851
:102B0000006848600620FFF7DAFE6C495C48006800
:102B100002F03CF802D269485949086068495848AF
:102B2000006801F033FF02D26548554908606349E7
:102B30005448006802F02AF802D2604851490860FF
:102B40005F495048006801F021FF02D25C484D49BE
:102B500008605C4801684A48006802F053F85A4926
:102B600008605A4801684748006802F04BF8564927
:102B7000486050480068564908604F480068554909
:102B80000860BDE8F08101280ED153490988820709
:102B9000918652490988118751490988918751497D
:102BA0000988514A11802CE0022813D100214F4A94
:102BB00011604F4A11604F4A1160424A1160434A06
:102BC0001160344A11604207918611879187464A05
:102BD000118016E0032814D10021444A1160444AB0
:102BE0001160444A1160374A1160384A1160294A1D
:102BF00011604FF4A5714A079186118791873A4A6F
:102C00001180704710B50468B4F5797F03DB40F29A
:102C1000E334046004E00468002C01DA002404605A
:102C20000C68B4F5797F03DB40F2E3340C6004E018
:102C30000C68002C01DA00240C601468B4F5797F6C
:102C40005ADB40F2E33414605BE000006666364015
:102C50003C0300203333333F000096430000F04034
:102C6000540300206666E63F0000C8426C03002063
:102C700094030020A00300208001002068040020AD
:102C8000080100200C010020840300200000D03F38
:102C9000C9000020B8000020440100204C010020A1
:102CA000200100200000B443CA000020CE00002014
:102CB000D8000020180100201C0100200000A041C5
:102CC0000000A0C1B400002030030020B0000020AC
:102CD00010010020140100206C0100206001002080
:102CE000640100206801002040000040BC0000207A
:102CF000C0000020700100201468002C01DA0024BC
:102D000014601C68B4F5797F03DB40F2E3341C6087
:102D100004E01C68002C01DA00241C6010BD2DE9C1
:102D2000F84FFC480078FC490870FC48C068FC4932
:102D30000860FC4A1168F94A106801F05BFEFA4924
:102D40000860F8490868F94901F020FE24D2F549E5
:102D50000868F74901F01AFF1ED2F24A1168EF4ADB
:102D6000506801F047FE009001F04CFC82460022C2
:102D7000F04B00F049FF06460F46E849086901F0AC
:102D800041FC804632463B4600F082FE044600F09D
:102D90004DFEE249086102E00020E0490861DF4998
:102DA0000869DF49096801F0F1FE03D2DC480068D8
:102DB000DA490861DA48006880F00044D7480169C0
:102DC000204601F0E3FE05D2D548006880F00040BF
:102DD000D2490861D1480169D348006801F03EFC3E
:102DE000D1490860D44A1168D44A106801F00AFF3A
:102DF0000546CA488168284601F0FCFD80F0004481
:102E0000C9480168204601F029FCC7490860C34849
:102E1000C068CB490860C34A5168C04A106801F0D5
:102E2000E9FDC8490860BF494868C04901F0AEFDE6
:102E300024D2BC494868BE4901F0A8FE1ED2B94A56
:102E40005168B64A506801F0D5FD009001F0DAFBF8
:102E500006460022B74B00F0D7FE04460D46AF49A8
:102E6000486901F0CFFB804622462B4600F010FE59
:102E7000824600F0DBFDA949486102E00020A74935
:102E80004861A6494869AE49096801F07FFE03D24E
:102E9000AB480068A1494861A948006880F0004437
:102EA0009E484169204601F071FE05D2A4480068A1
:102EB00080F000409949486198484169A1480068FC
:102EC00001F0CCFB9F4908609B4A51689B4A5068BF
:102ED00001F098FE054691488168284601F08AFD78
:102EE00080F0004497480168204601F0B7FB9549FF
:102EF0000860954801689548006801F083FE944990
:102F0000086094499248006801F040FE1BD2924943
:102F10008F48006801F03AFE0CD28B4801688B485C
:102F2000006801F06FFE04468C4901F06BFE8C498D
:102F3000086015E0844801688448006801F062FE7A
:102F4000874908600CE081480168844801F086FBED
:102F500004467D480168204601F054FE804908601F
:102F6000804881688048006801F044FD07467F483A
:102F7000006880F000467A480168304601F03AFD6A
:102F80000546394601F03EFE044601F097FC7849BB
:102F900008600846006801F0CDFC074675490868DE
:102FA00001F0C8FC804660480168404601F056FBCD
:102FB000064664480168304601F024FE054639465D
:102FC00001F04CFB044601F079FC6B49086068484D
:102FD000006801F0AFFC07466649086801F0AAFCEA
:102FE000804651480168404601F038FB0646554886
:102FF0000168304601F032FB0546394601F002FE19
:10300000044601F05BFC5D4908605948006801F026
:1030100091FC07465749086801F08CFC80464248FD
:103020000168404601F0EEFD04464648016820462E
:1030300001F014FB0646394601F010FB054601F08D
:103040003DFC4F4908604A48006801F073FC0746A0
:103050004849086801F06EFC8046334801684046E4
:1030600001F0D0FD064637480168304601F0CAFD40
:103070000546394601F0C6FD044601F01FFC4149F2
:1030800008600B463E4A3D493B48FFF7BBFD3E48C2
:10309000007801280CD137480068C82808DD0120D5
:1030A000FFF771FD0020394908703949088002E0B6
:1030B0000220FFF768FD37493748006801F066FDD8
:1030C00011D336493448006801F060FC0BD3314914
:1030D0003348006801F05AFD05D330493048006894
:1030E00001F054FC0ED20220FFF74DFD2D48006880
:1030F00020F480402B4908602B48006820F40040F1
:10310000294908602948007810B90220FFF73BFDE3
:10311000BDE8F88FCE000020CF0000203C03002047
:103120007801002030030020BC0000200000704225
:10313000000070C200007940E00100201803002068
:103140007C010020C0000020B800002044010020C5
:1031500048010020000034C3000034430000B443A1
:10316000340100200C030020400100203C0100201D
:103170007001002084030020600100206401002011
:10318000680100206C010020C9000020CA00002056
:10319000CC00002000000C43B000002000000CC355
:1031A000B40000200C0C01400C080140010000207C
:1031B0004FF4A570084908600120084908700020F4
:1031C000054988604860C86005490860486005494D
:1031D000086148617047000084030020C900002096
:1031E000300300203C030020704710B5203AC0F0A7
:1031F0000B80B1E81850203AA0E81850B1E81850F8
:10320000A0E81850BFF4F5AF5FEA027C24BFB1E834
:103210001850A0E8185044BF18C918C0BDE81040A5
:103220005FEA827C24BF51F8043B40F8043B08BFAE
:103230007047D20728BF31F8023B48BF11F8012B75
:1032400028BF20F8023B48BF00F8012B70477047A9
:1032500070477047704710B500F008F8006810BD5F
:1032600010B5044600F002F8046010BD0048704735
:103270003005002000487047300500207546FFF7F4
:10328000F9FFAE4605006946534620F00700854623
:1032900018B020B5FCF7AAFFBDE820404FF00006AB
:1032A0004FF000074FF000084FF0000B21F007012E
:1032B000AC46ACE8C009ACE8C009ACE8C009ACE871
:1032C000C0098D46704710B50446AFF30080204614
:1032D000BDE81040FCF771BF490050EAC12018BF9B
:1032E00004204A0D18BF40F0010040F2FF72B2EB1B
:1032F000515F08BF40F00200012808BF0520704759
:103300002DE9F0414F1E00EBC7010446D1E9000151
:1033100015461E4637F006020DD02A46334600F009
:1033200061FE7F1E04EBC703D3E9002300F0B0FB6E
:1033300037F00602F1D1022F25D0042F13D0062F2B
:1033400018BFBDE8F0812A46334600F04BFED4E9B1
:103350000A2300F09DFB2A46334600F043FED4E9E1
:10336000082300F095FB2A46334600F03BFED4E9E3
:10337000062300F08DFB2A46334600F033FED4E9E5
:10338000042300F085FB2A46334600F02BFED4E9E7
:10339000022300F07DFB2A46334600F023FED4E9E9
:1033A0000023BDE8F04100F073BB012201F0D1BC65
:1033B00000F06EBB002213461046114600F024BCFC
:1033C000024A0020110701F0C4BC000001FDFFFF0C
:1033D0002DE9F04D8D4F21F0004A86B005460C4690
:1033E000BA452ADBAAEB070028430AD08848824561
:1033F00001DC1AD1CDB106B02846BDE8F04DFFF78B
:10340000D4BF844A844B284600F0ECFD07460E46A4
:10341000824A834B2846214600F0E4FD06B03A4636
:103420003346BDE8F04D00F033BB0120FFF718FF35
:1034300006B0BDE8F04DFFF7BDBF7A48824542DADD
:10344000BAF1795F0BDA2846FFF746FF042808BF78
:10345000FFF7B6FF284606B02146BDE8F08D2A46A4
:103460000B46104600F0BEFD834602466E480E46EF
:103470000B4606217844FFF743FF5A46334600F0D7
:10348000B1FD804669488A465A463346042178444D
:10349000FFF736FF5A46334600F0A4FD00223B46B4
:1034A00000F0F6FA02460B464046514600F0ACFBEF
:1034B0002A46234600F096FD06B02A462346BDE87C
:1034C000F04D00F0E5BA284624F0004100223D46C8
:1034D0003B4600F0BBFE4FF0FF3201F03AFC0646DF
:1034E000024653480F460B4606217844FFF708FF73
:1034F00032463B4600F076FDCDE900014D483246AC
:103500003B4604217844FFF7FBFE32463B4600F081
:1035100069FD00222B4600F0BBFA8346029130463B
:10352000394600F05DFA804643480D46504517DCA9
:10353000DDE900015A46029B00F066FB42462B463D
:1035400000F050FD42462B4600F0A2FA012201F0A5
:1035500000FC304A304B00F06BFF304A304B4CE0FF
:103560004FF0000A52460B46404600F091FACDE972
:10357000031052462B461046194600F033FD3246E2
:103580003B4600F063FEDDE9033200F03DFB0646FA
:103590000F46DDE900015A46029B00F035FB8346E9
:1035A000009101223046394601F0D3FB194A1A4BEB
:1035B00000F04CFE06460F4601224046294601F027
:1035C000C8FB5A46009B00F00DFD32463B4600F01A
:1035D0002FFF06460F4601225046294601F0B9FB4F
:1035E0000E4DDFF858802A46434600F02FFE324643
:1035F0003B4600F02BFE2A46434600F027FE002CF7
:10360000D8BF81F0004106B0BDE8F08D0000F03F6A
:103610000000F07F075C143326A6913C182D44541B
:10362000FB21F93F0000E03FB8190000CE1900006F
:1036300042190000581900003333EF3FFB21E93FE6
:103640002DE9F84F04460D4621F0004000917349E2
:10365000814211DC7249884201DC06D12CB120463E
:103660002946BDE8F84FFFF7A0BE6E48002DCCBF3D
:103670006D496E49BDE8F88F6D49814211DD6D4994
:103680008142D8BF4FF0FF366DDD20462946FFF757
:1036900023FE042808BFFFF793FE20462946BDE815
:1036A000F88F6549654F25F00045814233DD644957
:1036B000814219DD002632464FF0804320462946DC
:1036C00000F0E6F980468A4601222046294601F0AC
:1036D00040FB00223B4600F0ABFE4246534600F062
:1036E00093FA04460D463EE001260022BA463B46C8
:1036F0002046294600F0CCF980460F46002253466A
:103700002046294600F094FE42463B4600F07CFAF3
:1037100004460D4627E04B4981421BDDDFF828A116
:103720000226002253462046294600F05BFC002278
:103730003B4600F0ADF980460F4600225346204636
:10374000294600F075FE42463B4600F05DFA04460D
:103750000D4608E0032622462B4600203B4900F098
:1037600053FA04460D4622462B461046194600F0F1
:1037700039FC8B46824602460B4600F033FC074676
:103780000246334888460B4606217844FFF7B8FDC9
:1037900052465B4600F026FC82462E488B463A464F
:1037A000434605217844FFF7ABFD3A46434600F017
:1037B00019FC02460B46002E504659460CDA00F022
:1037C00067F922462B4600F00DFC01B022462B463D
:1037D000BDE8F04F00F03ABD00F05AF922462B4602
:1037E00000F000FC1C4A7A4402EBC603D3E9002334
:1037F00000F01EFE22462B4600F01AFE174A7A44BD
:1038000002EBC603D3E9002300F020FD009A002A52
:10381000B8BF81F00041BDE8F88F000000001044FF
:103820000000F07F182D4454FB21F93FFB21F9BF24
:103830000000DC3F0000203E0000F33F0000F03FAE
:103840000000E63F008003400000F83F0000F0BFAA
:103850005A17000018170000B61600007E16000068
:103860002DE9F04D9446CCF1000423F000464CEADB
:103870000404524F46EAD4749A46884621F0004226
:10388000BC4206D8454240EA050442EAD474BC4230
:1038900004D9BDE8F04D6246FFF78ABDAAF1405554
:1038A000A5F17F6555EA0C040BD0022404EAAA7442
:1038B000434DDFF810E144EAD87452EA000B04D01B
:1038C0000CE0BDE8F04DFFF7BBBE002C14BF012C8F
:1038D000BDE8F08D022C30D0032C32D056EA0C0B10
:1038E0000AD0BE4220D1BA4209D126F0804622F049
:1038F00080423346114617E000291ADB25E0DFF845
:10390000C8B0FB44002C04BFDBE90001BDE8F08D2A
:10391000012C02BFDBE9000181F00041BDE8F08D20
:10392000022C0AD0032C0CD0BA4212D1B8F1000FED
:103930000BDA23482549BDE8F08D28462449BDE827
:10394000F08D28467146BDE8F08D1D482149BDE83F
:10395000F08D921B12153C2AC4BF19481D490EDC7C
:10396000BAF1000FBEBF12F13C0F0020014606DB8A
:10397000624600F049F921F00041FFF761FE002C9A
:1039800008BFBDE8F08D012C04BF81F00041BDE807
:10399000F08D114A114B022C07D000F049FD2A4648
:1039A000BDE8F04D0A4B00F043BD00F041FD2A4652
:1039B000BDE8F04D064B00F049BC00000000F07F70
:1039C000182D4454FB2109C012160000FB21F9BF39
:1039D000FB210940FB21F93F075C143326A6A13CDB
:1039E0002DE9F04106460F4600F03CFC041E0D4652
:1039F00018BF0120284320F00040C0F17F6000F193
:103A0000E040C00F0ED0301C18BF0120384320F01A
:103A10000040C0F17F6000F1E040C00F04BF012012
:103A2000FFF71EFC20462946BDE8F08121F0004248
:103A3000A2F16052B2F5801F01F0004328BFD2F11D
:103A40007F6C0BD95FEA001C43EAC20242EB507064
:103A500018BF704728BF20F001007047B2F5801FE3
:103A6000BCBF184670474FEA410C1CF5001F02D23C
:103A7000084601F086B870B500F05EFB00000089D2
:103A8000FFF7F6BF4FF00040A0F580007047000040
:103A900010B591EA030F48BF83F0004300F1D084D2
:103AA000841A71EB030C05D2121943EB0C03001BB3
:103AB00061EB0C01DFF824E14FEA1154A4EB135C35
:103AC0001EEA430F18BF9EEA445F73D023EA0E0339
:103AD000DCF1200E21EA045143F4801332D322FAA0
:103AE0000CFE10EB0E0023FA0CFE41EB0E01CCF1A4
:103AF000200E03FA0EFE10EB0E0051F10001B1F59D
:103B0000801FCCF1200E32D201EB045112FA0EF2DA
:103B1000BDE8104058BF7047401C38BF5FEA420202
:103B200018BF7047002814BF20F0010041F10001C8
:103B30004FEA410313F5001F38BF7047A1F1C041A0
:103B400000F048BB012A43EB0302ACF1200CDCF18E
:103B50001F0E32BF4FF0000E23FA0CF310EB0300E0
:103B600041EB0451B4EB115FD0D0A1EB045101F54E
:103B7000801149085FEA300001EB04510ED350F187
:103B8000000038BF12FA0EFE08D1BDE81040C9E7A8
:103B9000401C38BF5FEA4202CAD1C3E7BDE810400B
:103BA0004FEA410313F5001F38BF7047A1F1C04130
:103BB00000F010BB9EEA445F08D011EA5E0FBDE83A
:103BC000104004BF01F0004100207047BDE81040E4
:103BD00070B500F0B1FA00BF64FBBE3E0000E0FF2C
:103BE00002494FF0000001F082B800BF0000F87FEA
:103BF000491058BFC1F140415B1058BFC3F1404369
:103C00008B42EFF3008070472DE9C04130B4DFF8FC
:103C1000A0C23CEA111418BF3CEA131400F0EC8077
:103C200081EA03051CEA111444EAD57418BF1CEAA2
:103C3000131500F0C780A4EB05044FF0004545EADA
:103C4000C12145EAC32341EA505143EA525304F1EA
:103C50007F74994204F500344FEAC0204FEAC22233
:103C600008BF904200F09C804FEA13650FF24016A7
:103C7000765D4FEA134506FB05F7C7F1807706FB33
:103C800007F74FEAD737A7FB03687642C8F58038B5
:103C9000A7FB06CE38BFA8F1010807FB08E64FF0E6
:103CA000000EA6FB028CE6FB03CEDCF1000CCEF18D
:103CB000004E38BFAEF1010EA6FB0C584FF00007C6
:103CC0004FF00005E6FB0E87A1FB08C6A0FB07CE60
:103CD00016EB0E0645F10005E1FB076515F1E04E18
:103CE0007EBFA4F580345FEA46066D4116F1800779
:103CF00045F100054FEA17274FEA066647EA0567D0
:103D0000A6F1DE46B6F1805F4FEA15251FD9384689
:103D100024F0010C05EBC471BCF1FE6F01EB0C113A
:103D200002D8F0BCBDE8008124425CBF01F5801ED2
:103D30009EEAC47F02D4F0BCBDE80081244238D49E
:103D4000F0BCA1F1C041BDE8004100F043BA4FEA28
:103D5000D22242EA43524FEAD323A7FB02864FEA1C
:103D6000D02040EA415007FB03661EEA0E0F4FEADF
:103D7000D12105FB026658BFA6EB0056B6EB0056F4
:103D80004FEA520E4EEAC37E18EB0E0E56EB530E60
:103D9000BDD518EB02085E417F1C55F10005B6E762
:103DA0004FF480154FF000074FF000064FF0000869
:103DB000ADE7F0BC4FF0000001F1C04101F000415F
:103DC000BDE8008111EA0C1F0CEA131500D00CE0CD
:103DD00013EA0C1F00F025804FF00000F0BC81EAD0
:103DE000030101F00041BDE80081F0BCBDE80041E5
:103DF00081EA030100F0EEB9F0BCBDE8004170B506
:103E000000F09AF9097EFC3E00F007B881EA030150
:103E10004FF0000001F00041704781EA030100F01B
:103E2000D9B9F0BCBDE800414FF00000214970470E
:103E3000FFFDFBF9F7F5F4F2F0EEEDEBE9E8E6E46F
:103E4000E3E1E0DEDDDBDAD8D7D5D4D3D1D0CFCDF6
:103E5000CCCBCAC8C7C6C5C4C2C1C0BFBEBDBCBB2F
:103E6000BAB9B8B7B6B5B4B3B2B1B0AFAEADACAB2A
:103E7000AAA9A8A8A7A6A5A4A3A3A2A1A09F9F9E04
:103E80009D9C9C9B9A9999989797969595949393B6
:103E9000929191908F8F8E8E8D8C8C8B8B8A89894D
:103EA00088888787868585848483838282818180D0
:103EB0000000FF070000F87F4FEA41034FEA535329
:103EC000A3F58063D3F11E03C8BFD3F1210C0CDD31
:103ED0004FF0004242EAC12242EA505232FA03FC59
:103EE0008CEAE17CACEBE1707047102BC4BF002082
:103EF000704703F5787CBCF1FF3F04D06FF00042BF
:103F000082EA2100704770B500F016F949922480CA
:103F100000207047F2E710F0004248BF4042B0FA7C
:103F200080F310FA03F10AD0C3F11D0303F5806397
:103F30004FEA415002EB035202EBD12170474FF0A0
:103F400000007047B0FA80F310FA03F10AD0C3F111
:103F50001D0303F580634FEA41504FEA035202EB21
:103F6000D12170474FF000007047000051EA030C68
:103F700017D41CF5801F58BFBCF5801F00F10680C8
:103F8000994218BF704708BF9042704707D711F594
:103F9000801F58BF13F5801F19D49942704789427A
:103FA00070471CF5801F08D5BCF5801FF7D58B42E4
:103FB00018BF704708BF824270474FF4001C1CEBCB
:103FC000410F38BF1CEB430F01D28B42704770B5D5
:103FD00000F0B2F8922449004FF000514FF08053A6
:103FE000FFF706BEDFF848C170B51CEA111E1EBF00
:103FF0001CEA13159EEA0C0F95EA0C0F00F06F8077
:1040000081EA030423EA4C134EEAD47E21EA4C11E0
:1040100041F4801143F48013AE44A1FB024CA0FB99
:104020000365AEF17F7E361955EB0C05A1FB034C01
:104030004CF10003A0FB021C16EB0C06654153F18A
:104040000003094218BF46F0010613F4007F0BD1AC
:104050004FEA03314FEA0530340341EA155140EA93
:1040600016506FF003020AE04FEAC3214FEAC52061
:10407000F40241EA555140EA56506FF0020202EB59
:104080002E4201EB025585EACE710AD05FEA440C5C
:1040900018BF24F0004450F1000041F1000120EA73
:1040A000D47040F2FE7C624500D270BDA84214BFBD
:1040B0004FF080444FF04044002E08BF0024BEF172
:1040C000806FA8BFA1F1C041BDE8704080F282803E
:1040D0004FF0000001F1C04101F0004170479EEA3D
:1040E0000C0F0CEA131518BF95EA0C0F06D04FF011
:1040F000000081EA030E0EF0004170BD00F01CF8D4
:104100008900013E00F007B800F009B84FEA430CFF
:104110005FEA5C5C08D081EA030100F05BB84FEA1B
:10412000410C5FEA5C5CF6D14FF00000014970473A
:104130000000FF070000F87F0EF1020E2EF0030EC4
:104140005EF8046B364205D4012A43EB030515F5EE
:10415000001F12D8012841EB010C1CF5001F0CD8E0
:104160000ED14FEAD17C15F5001F0CEB4C0C0CF175
:10417000020C08BF4CEBD37C04E04FF0080C01E0CC
:104180004FEAD37C0CEB4C0526FA05F606F0070641
:10419000B6F1040C06D20EEB860CBDE870404CF074
:1041A000010C6047DFE80CF0090B02024FF0004100
:1041B0004FF00000A1F5002170BD194610460128FE
:1041C00051EB010418BFD4F5001484BF002001F0A6
:1041D000004170BD0808A0F500114FEA3101704799
:1041E00053EA010C17D41CF5801F58BFBCF5801F83
:1041F00000F106808B4218BF704708BF82427047AB
:1042000007D713F5801F58BF11F5801F19D48B42B3
:1042100070479B4270471CF5801F08D5BCF5801F76
:10422000F7D5994218BF704708BF904270474FF4C6
:10423000001C1CEB430F38BF1CEB410F01D299420D
:1042400070470FB40CBC03BCFFF7C1BE91EA030F6B
:1042500010B581F000413FF523AC83F0004300F03E
:10426000EFB800002DE9F04101F5801CBCF5001FFE
:10427000C0F2C3804FEA115C21EA0C510CF1FD0C35
:1042800041F480115FEA5C0C0CF5C07C01D3400066
:1042900049413DA4890241EA905187028E0E0A0CE1
:1042A000A45D04FB04F602FB06F6C6F14046A4FB3F
:1042B0000662F60D46EA422606FB06F4A4FB01233D
:1042C0005242C3F1404338BF5B1EA6FB02420024AA
:1042D000E6FB0324D20B42EA4446A6FB0623A1FBDD
:1042E00002E2A3FB07E4A4184FF0000252F100021F
:1042F000E3FB01426442C2F1404E38BFAEF1010E11
:10430000A6FB04234FF00002E6FB0E32A2FB03469D
:104310004FF00004B61954F10004E2FB0264A1FB63
:1043200006E6A4FB07E816EB08064FF0000858F174
:104330000008E4FB01687642C8F1405838BFA8F194
:104340000108A2FB06E4A3FB08E52D194FF00004C9
:1043500054F10004E2FB0854A1FB05E6A7FB04E8C6
:1043600018EB06084FF0000656F10006E1FB048644
:1043700018F1200556F10006A809A8F11B08B1099B
:1043800008F03F08B8F10A0F40EA86601CD901EB3B
:104390000C51BDE8F08100BFFCF5EEE8E2DDD8D3BA
:1043A000CFCBC7C3C0BDB9B6B4B1AEACA9A7A5A3A6
:1043B000A19F9D9B9A9896959392908F8D8C8B89B7
:1043C0008887868584838281A0FB006800FB01F2D8
:1043D00008EB4208B8EB872807D5341858EB0104DE
:1043E000D5D5401C51F10001D1E7341A78EB010416
:1043F000CDD4401E71F10001C9E75FEA4C0C5FEAC1
:104400009C5C0DD105D34FF0000001F00041BDE8E8
:10441000F081BDE8F04170B5FFF78EFE6DDBFFBEA9
:10442000BDE8F0414FF00000004970470000F87F00
:1044300010B591EA030F48BF83F000433FF530AB5E
:10444000841A71EB030C07D212198CF0004C43EB69
:104450000C03001B61EB0C01DFF8A4E14FEA1154DF
:10446000A4EB135C1EEA430F18BF9EEA445F00F002
:10447000B08023EA6E03524221EA0451C3EB6E037B
:1044800038BF5B1EDCF1200E25D322FA0CFE10EBA8
:104490000E0043FA0CFE41EB0E01CCF1200E03FAA4
:1044A0000EFE10EB0E0051F10001CCF1200E29D4CC
:1044B00012FA0EF201EB0451BDE8104058BF7047EC
:1044C000401C1CBFB2F1004F704700280CBF491CB4
:1044D00020F00100704712EB020E43EB030218BFFD
:1044E0004FF0010E4EEA4202ACF1200CDCF11E0E40
:1044F00054D943FA0CFE10EB0E0051F1FF31CCF110
:104500001E0ED5D50EF1010E12FA0EFE404141EB02
:10451000010101EB445C5FEA5C5C10D910EBDE70DA
:1045200001EB045138BFBEF1004FBDE8104018BF89
:10453000704700280CBF491C20F00100704730D2A2
:104540004FEAD42C11F5001124F400641BD0B1FA09
:1045500081F20B3AA41AA41ED2F12003914030FA42
:1045600003F31943904001EBCC71002C01EB045193
:10457000BDE81040A8BF704701F1C0414FF00000F6
:1045800001F000417047B0FA80F310FA03F100D156
:1045900010BDE41A173C4805C90AE4E701EB0451D1
:1045A00010BD491001EB0451BDE810404FEA300046
:1045B00002E04FF0000170474A0008BF0042F8D007
:1045C000B2F5001F28BF704701F000414FF0000016
:1045D00070479EEA445F07D011EA5E0FBDE81040C5
:1045E00004BF002100207047BDE8104070B5FFF700
:1045F000A3FD00BF40DFF63E83F000411046704748
:104600000000E0FF43004FEAD30C4FEA3C0C43406C
:104610001FBF40070CF1605113F0FE4F70471CF0B4
:10462000006F03D100200CF0004170470CF00043F4
:1046300043EA507010B540EACC0000F05CFA00BFCD
:10464000000000924FEA0001FFF7C4BD4FF00041A7
:104650004FF00000A1F500217047000090EA010F23
:1046600048BF81F0004100F1D482421A3CBF801A59
:1046700089184FEAD0524FF07F4C1CEA410FA2EB51
:10468000D15318BF9CEA026F00F03B804FF0004C02
:104690004CEA00204CEA012121FA03FC10EB0C0C3F
:1046A0001ED202F1FF325FEA1C2040EBC25038BF3D
:1046B00070471CF07F0F4FEA400C18BFBCF17F4FD2
:1046C00038BF7047C3F12003994008BF20F00100B4
:1046D000BCF17F4F38BF7047A0F1C04000F051BA25
:1046E0004FEA3C00000A40EBC25028BF1CF0FF0F0D
:1046F0004FEA400CE6D018BFBCF17F4F38BF70477F
:10470000EAE79CEA026F05D010EA5C0F08BF00F0F0
:104710000040704710B500F0EEF900BF64FBBE3EEC
:10472000401058BFC0F14040491058BFC1F140414E
:104730008142EFF3008070474FF47F0C1CEAD012E7
:104740001EBF1CEAD11392EA0C0F93EA0C0F00F083
:10475000858090EA010F48BF42F4807240F4000C5B
:1047600041F400002CF07F4120F07F4000B58142F1
:10477000A2EB03020FF2081CACEB504EC0F100009C
:104780009EF800E04FEA4E0E00FB0EFC38BF4900D9
:104790004FEA2C1C02F5FA020CFB0EF34FEACE1E78
:1047A0004FEA112C4FEAC1210EEB635E42EB22422D
:1047B0000EFB0CFC4FEA1C5300FB03114FEA112CBB
:1047C0004FEA01310EFB0CFC4FEADC4C00FB0C11F4
:1047D000C14228BF09184CEB03335DF804EB10EB22
:1047E000410143EBC250B2F57C0F38BF704729D569
:1047F00012F0F00F1CBF00F1C04000F00040704705
:10480000008182838485868788898B8C8D8E8F91A9
:104810009293959697999A9C9D9FA0A2A3A5A7A8CD
:10482000AAACAEB0B2B3B5B7B9BCBEC0C2C5C7C9F9
:10483000CCCED1D4D7D9DCDFE2E6E9ECF0F3F7FA5D
:10484000FE0000004FEA400C0CF1807CBCF17E4F72
:1048500028BF7047B0F1C04000F093B990EA010F53
:104860000CEAD11348BF42F48072624538BF6345F9
:1048700007D213F47F0F16D080EA010000F0004049
:10488000704710B500F037F9097EFC3E00F005B81E
:1048900080EA010000F00040704780EA010000F06B
:1048A000004000F06EB912F47F0F04BF0248704759
:1048B00080EA010000F065B90000C07F41000B0EE6
:1048C000D3F19E0208D950F400034FEA032323FAE0
:1048D00002F048BF4042704710B500F00CF900BF2D
:1048E00049922480002070476FF0004282EA200045
:1048F00070470000C10DD1F19E0206DB4FEA002394
:1049000043F0004323FA02F07047004207D54FEA14
:104910004001B1F1FE4F02D24FF00000704710B5D8
:1049200000F0E9F849922480002070476FEA2000E7
:104930007047000010F0004148BF4042B0FA80F3D9
:1049400010FA03F2C3F19D030BD051EAC35101EBFE
:104950001220530638BF704700F1010008BF20F055
:1049600001007047B0FA80F310FA03F2C3F19D031F
:104970000AD0D90501EB1220530638BF704700F169
:10498000010008BF20F001007047000050EA010C50
:1049900000F113801CF5000F58BFBCF5000F01D4C7
:1049A0008842704707D710F5000F58BF11F5000F68
:1049B00015D488427047894270471CF5000F04D512
:1049C000BCF5000FF7D5814270474FF0807C1CEB9F
:1049D000400F38BF1CEB410F01D28142704710B528
:1049E00000F089F8922449004FF000504FF08051B8
:1049F000FFF796BE4FF47F0C1CEAD0121EBF1CEAD4
:104A0000D11392EA0C0F93EA0C0F00F0478090EA62
:104A1000010F48BF42F480724FF0004C4CEA002076
:104A20004CEA012102EB0302A0FB0113A2F50002F4
:104A3000002918BF43F001035B0028BF4FEA33038E
:104A400042EB22425FEA132C4CEBC2502EBFBCEB70
:104A5000436FB2F57C0F70474FEA036CBCF1004F17
:104A600008BF20F00100B2F57C0F38BF70470BD5AE
:104A700082F0FF0212F5803FC8BF704700F1C040CE
:104A8000D8BF00F00040704700F5000C5FEA4C0C06
:104A900048BF7047B0F1C04000F073B890EA010F12
:104AA0000CEAD11348BF42F48072624538BF6345B7
:104AB00004D280EA010000F00040704710B500F019
:104AC0001AF800BF8900013E00F007B800F009B8ED
:104AD0005FEA410C5FEA1C6C08D080EA010000F03C
:104AE00050B85FEA400C5FEA1C6CF6D14FF0004012
:104AF000A0F5800070470EF1020E2EF0030E5EF856
:104B0000044B244204D44FEA4102B2F17F4F11D842
:104B10004FEA4003B3F17F4F0CD80ED14FEAD07C5F
:104B2000B2F17F4F0CEB4C0C0CF1020C08BF4CEBBC
:104B3000D17C04E04FF0080C01E04FEAD17C0CEB93
:104B40004C0324FA03F404F00704B4F1040C06D275
:104B50000EEB840CBDE810404CF0010C6047DFE820
:104B60000CF0070802024FF00040A0F5800010BDD5
:104B70000846420018BFD2F1807288BF00F00040A2
:104B800010BDFF2141EAD050C005704751EA000C2A
:104B900000F113801CF5000F58BFBCF5000F01D4C5
:104BA0008142704707D711F5000F58BF10F5000F6D
:104BB00015D481427047894270471CF5000F04D517
:104BC000BCF5000FF7D5884270474FF0807C1CEB96
:104BD000410F38BF1CEB400F01D28842704780EA7A
:104BE000010081EA000180EA0100FFF7F8BE80F0D1
:104BF000004090EA010F7FF538AD81F0004100F0F0
:104C000008B8000090EA010F48BF81F000413FF56D
:104C10002CAD421A04D882F00042A0EB02001144ED
:104C20004FEAD0524FF07F4C1CEA410FA2EBD15318
:104C300018BF9CEA026F4AD04FF0004C4CEA0020AB
:104C40004CEA012121FA03FCB0EB0C0C0FD412F05A
:104C5000FE0F36D05FEA4C001DD5001240EBC2506B
:104C600038BF70471CF03F0F18BF70470BE0A2F130
:104C700001025FEA1C2040EBC25038BF70471CF0B5
:104C80007F0F18BF7047C3F12003994014BF401E27
:104C900020F00100704780084FEA122308BF7047D8
:104CA000B0FA80FCA2EB0C02CCF1280C60FA0CF0FC
:104CB00093EA122F04BF00EBC25070474FEAC37053
:104CC0007047130A5FEADC1008BF7047F6E79CEAFA
:104CD000026F04D010EA5C0F08BF0020704710B5C7
:104CE000FFF709FF40DFF63E81F0004070470CF00F
:104CF0000F03092B08BF082000F059800A2B0BD0A6
:104D0000082B18BF704708BF1CF0400F0AD04FF0A7
:104D100000004FF0000170471CF0400F18BF4FF02B
:104D2000004070471CF0100F08D020F0704300F0D6
:104D30007F4242EAD3014FEA4370704700F060407F
:104D400021F07F4242EA000201F07F4040EA7270A7
:104D500070474FF0FF0C4CF4E06C1CEA11531CBF81
:104D60009CEA030C9445C2BFDA4201EB0251704742
:104D7000002B0DD0BCF1000F0FD0002A01F0004134
:104D8000A4BF41F0E04141F07F614FF00000704767
:104D900001F000414FF00000704750EA01334FF03E
:104DA0009B0C18BF4CF0806C7EF41AAF70471CF45B
:104DB000801F11D01CF4E02F03D06FEACC314900E2
:104DC00070474FF04050EFF3008222F0704242EA09
:104DD000000282F3008870474FF000007047000027
:104DE000F775603C4260653C1EA7683CFAED6B3C81
:104DF000D7346F3C45D8703CB37B723C211F743C68
:104E00008FC2753C8FC2753C8FC2753C211F743CAC
:104E1000B37B723C45D8703CD7346F3CFAED6B3CA9
:104E20001EA7683C4260653CF775603C00000000CE
:104E3000555555555555C53F7D6FEB0312D6D4BF1B
:104E40005544880E55C1C93F3B8F68B52882A4BF21
:104E500088B20175E0EF493F09F7FD0DE13D023FE2
:104E60004B2D8A1C273A03C0C88A599CE52A00406A
:104E700059018D1B6C06E6BF82922EB1C5B8B33FB7
:104E80004FBB610567ACDD3F182D4454FB21E93F62
:104E90009BF681D20B73EF3F182D4454FB21F93F51
:104EA000E2652F227F2B7A3C075C143326A6813CD7
:104EB000BDCBF07A8807703C075C143326A6913C82
:104EC000C4EB98999999C9BF711623FEC671BCBFEE
:104ED0006D9A74AFF2B0B3BF9AFDDE522DDEADBF56
:104EE0002F6C6A2C44B4A2BF0D5555555555D53F6E
:104EF000FF8300922449C23F6E204CC5CD45B73F89
:104F0000513DD0A0660DB13FEB0D76244B7BA93F00
:104F100011DA22E33AAD903F0000000000000000EB
:104F2000404F000800000020840100002801000814
:104F3000744F0008840100200C0D0000840100085B
:104F400002230A021F223E12345678A10591E00A7C
:104F5000400AD7A33B0AD7233B0368803F0550A6EE
:104F60009B443C02111E87A040F628444019F402DD
:044F7000343A0000CF
:04000005080000ED02
:00000001FF
